{
  "contractName": "Abc",
  "abi": [
    {
      "inputs": [
        {
          "internalType": "uint32",
          "name": "",
          "type": "uint32"
        }
      ],
      "name": "mappingIdToStudentId",
      "outputs": [
        {
          "internalType": "uint32",
          "name": "",
          "type": "uint32"
        }
      ],
      "stateMutability": "view",
      "type": "function"
    },
    {
      "inputs": [],
      "name": "numberOfStudents",
      "outputs": [
        {
          "internalType": "uint32",
          "name": "",
          "type": "uint32"
        }
      ],
      "stateMutability": "view",
      "type": "function"
    },
    {
      "inputs": [
        {
          "internalType": "uint32",
          "name": "",
          "type": "uint32"
        }
      ],
      "name": "students",
      "outputs": [
        {
          "internalType": "string",
          "name": "name",
          "type": "string"
        },
        {
          "internalType": "string",
          "name": "answers",
          "type": "string"
        }
      ],
      "stateMutability": "view",
      "type": "function"
    },
    {
      "inputs": [
        {
          "internalType": "uint32",
          "name": "_id",
          "type": "uint32"
        }
      ],
      "name": "getStudentMarks",
      "outputs": [
        {
          "internalType": "string",
          "name": "Name",
          "type": "string"
        },
        {
          "internalType": "string",
          "name": "Answers",
          "type": "string"
        },
        {
          "internalType": "address",
          "name": "sender",
          "type": "address"
        }
      ],
      "stateMutability": "view",
      "type": "function"
    },
    {
      "inputs": [],
      "name": "getAllStudentsMarks",
      "outputs": [
        {
          "internalType": "uint32[]",
          "name": "ids",
          "type": "uint32[]"
        },
        {
          "internalType": "string[]",
          "name": "names",
          "type": "string[]"
        },
        {
          "internalType": "string[]",
          "name": "answers",
          "type": "string[]"
        },
        {
          "internalType": "address",
          "name": "_sender",
          "type": "address"
        }
      ],
      "stateMutability": "view",
      "type": "function"
    },
    {
      "inputs": [
        {
          "internalType": "uint32",
          "name": "_id",
          "type": "uint32"
        },
        {
          "internalType": "string",
          "name": "_name",
          "type": "string"
        },
        {
          "internalType": "string",
          "name": "_ans",
          "type": "string"
        }
      ],
      "name": "addMarks",
      "outputs": [],
      "stateMutability": "nonpayable",
      "type": "function"
    }
  ],
  "bytecode": "0x608060405234801561001057600080fd5b50611310806100206000396000f3fe608060405234801561001057600080fd5b50600436106100625760003560e01c8063494329a61461006757806356515fda1461009857806393199b09146100c8578063e3c361ec146100e6578063f2e946e214610102578063fd4f6c4514610123575b600080fd5b610081600480360381019061007c9190610bb7565b610155565b60405161008f929190610c7d565b60405180910390f35b6100b260048036038101906100ad9190610bb7565b610289565b6040516100bf9190610cc3565b60405180910390f35b6100d06102ac565b6040516100dd9190610cc3565b60405180910390f35b61010060048036038101906100fb9190610e13565b6102c2565b005b61010a610569565b60405161011a94939291906110a9565b60405180910390f35b61013d60048036038101906101389190610bb7565b610957565b60405161014c93929190611103565b60405180910390f35b600060205280600052604060002060009150905080600001805461017890611177565b80601f01602080910402602001604051908101604052809291908181526020018280546101a490611177565b80156101f15780601f106101c6576101008083540402835291602001916101f1565b820191906000526020600020905b8154815290600101906020018083116101d457829003601f168201915b50505050509080600101805461020690611177565b80601f016020809104026020016040519081016040528092919081815260200182805461023290611177565b801561027f5780601f106102545761010080835404028352916020019161027f565b820191906000526020600020905b81548152906001019060200180831161026257829003601f168201915b5050505050905082565b60016020528060005260406000206000915054906101000a900463ffffffff1681565b600260009054906101000a900463ffffffff1681565b6000815111610306576040517f08c379a00000000000000000000000000000000000000000000000000000000081526004016102fd906111f5565b60405180910390fd5b60008060008563ffffffff1663ffffffff16815260200190815260200160002060405180604001604052908160008201805461034190611177565b80601f016020809104026020016040519081016040528092919081815260200182805461036d90611177565b80156103ba5780601f1061038f576101008083540402835291602001916103ba565b820191906000526020600020905b81548152906001019060200180831161039d57829003601f168201915b505050505081526020016001820180546103d390611177565b80601f01602080910402602001604051908101604052809291908181526020018280546103ff90611177565b801561044c5780601f106104215761010080835404028352916020019161044c565b820191906000526020600020905b81548152906001019060200180831161042f57829003601f168201915b5050505050815250509050600081602001515114156104f5578360016000600260009054906101000a900463ffffffff1663ffffffff1663ffffffff16815260200190815260200160002060006101000a81548163ffffffff021916908363ffffffff1602179055506001600260009054906101000a900463ffffffff166104d49190611244565b600260006101000a81548163ffffffff021916908363ffffffff1602179055505b828160000181905250818160200181905250806000808663ffffffff1663ffffffff1681526020019081526020016000206000820151816000019080519060200190610542929190610ac4565b50602082015181600101908051906020019061055f929190610ac4565b5090505050505050565b6060806060600080600260009054906101000a900463ffffffff1663ffffffff1667ffffffffffffffff8111156105a3576105a2610ce8565b5b6040519080825280602002602001820160405280156105d15781602001602082028036833780820191505090505b5090506000600260009054906101000a900463ffffffff1663ffffffff1667ffffffffffffffff81111561060857610607610ce8565b5b60405190808252806020026020018201604052801561063b57816020015b60608152602001906001900390816106265790505b5090506000600260009054906101000a900463ffffffff1663ffffffff1667ffffffffffffffff81111561067257610671610ce8565b5b6040519080825280602002602001820160405280156106a557816020015b60608152602001906001900390816106905790505b50905060005b600260009054906101000a900463ffffffff1663ffffffff168163ffffffff16101561094157600160008263ffffffff1663ffffffff16815260200190815260200160002060009054906101000a900463ffffffff16848263ffffffff168151811061071a5761071961127e565b5b602002602001019063ffffffff16908163ffffffff1681525050600080600160008463ffffffff1663ffffffff16815260200190815260200160002060009054906101000a900463ffffffff1663ffffffff1663ffffffff168152602001908152602001600020600001805461078f90611177565b80601f01602080910402602001604051908101604052809291908181526020018280546107bb90611177565b80156108085780601f106107dd57610100808354040283529160200191610808565b820191906000526020600020905b8154815290600101906020018083116107eb57829003601f168201915b5050505050838263ffffffff16815181106108265761082561127e565b5b6020026020010181905250600080600160008463ffffffff1663ffffffff16815260200190815260200160002060009054906101000a900463ffffffff1663ffffffff1663ffffffff168152602001908152602001600020600101805461088c90611177565b80601f01602080910402602001604051908101604052809291908181526020018280546108b890611177565b80156109055780601f106108da57610100808354040283529160200191610905565b820191906000526020600020905b8154815290600101906020018083116108e857829003601f168201915b5050505050828263ffffffff16815181106109235761092261127e565b5b60200260200101819052508080610939906112ad565b9150506106ab565b5082828233965096509650965050505090919293565b60608060008060008563ffffffff1663ffffffff1681526020019081526020016000206000016000808663ffffffff1663ffffffff168152602001908152602001600020600101338280546109ab90611177565b80601f01602080910402602001604051908101604052809291908181526020018280546109d790611177565b8015610a245780601f106109f957610100808354040283529160200191610a24565b820191906000526020600020905b815481529060010190602001808311610a0757829003601f168201915b50505050509250818054610a3790611177565b80601f0160208091040260200160405190810160405280929190818152602001828054610a6390611177565b8015610ab05780601f10610a8557610100808354040283529160200191610ab0565b820191906000526020600020905b815481529060010190602001808311610a9357829003601f168201915b505050505091509250925092509193909250565b828054610ad090611177565b90600052602060002090601f016020900481019282610af25760008555610b39565b82601f10610b0b57805160ff1916838001178555610b39565b82800160010185558215610b39579182015b82811115610b38578251825591602001919060010190610b1d565b5b509050610b469190610b4a565b5090565b5b80821115610b63576000816000905550600101610b4b565b5090565b6000604051905090565b600080fd5b600080fd5b600063ffffffff82169050919050565b610b9481610b7b565b8114610b9f57600080fd5b50565b600081359050610bb181610b8b565b92915050565b600060208284031215610bcd57610bcc610b71565b5b6000610bdb84828501610ba2565b91505092915050565b600081519050919050565b600082825260208201905092915050565b60005b83811015610c1e578082015181840152602081019050610c03565b83811115610c2d576000848401525b50505050565b6000601f19601f8301169050919050565b6000610c4f82610be4565b610c598185610bef565b9350610c69818560208601610c00565b610c7281610c33565b840191505092915050565b60006040820190508181036000830152610c978185610c44565b90508181036020830152610cab8184610c44565b90509392505050565b610cbd81610b7b565b82525050565b6000602082019050610cd86000830184610cb4565b92915050565b600080fd5b600080fd5b7f4e487b7100000000000000000000000000000000000000000000000000000000600052604160045260246000fd5b610d2082610c33565b810181811067ffffffffffffffff82111715610d3f57610d3e610ce8565b5b80604052505050565b6000610d52610b67565b9050610d5e8282610d17565b919050565b600067ffffffffffffffff821115610d7e57610d7d610ce8565b5b610d8782610c33565b9050602081019050919050565b82818337600083830152505050565b6000610db6610db184610d63565b610d48565b905082815260208101848484011115610dd257610dd1610ce3565b5b610ddd848285610d94565b509392505050565b600082601f830112610dfa57610df9610cde565b5b8135610e0a848260208601610da3565b91505092915050565b600080600060608486031215610e2c57610e2b610b71565b5b6000610e3a86828701610ba2565b935050602084013567ffffffffffffffff811115610e5b57610e5a610b76565b5b610e6786828701610de5565b925050604084013567ffffffffffffffff811115610e8857610e87610b76565b5b610e9486828701610de5565b9150509250925092565b600081519050919050565b600082825260208201905092915050565b6000819050602082019050919050565b610ed381610b7b565b82525050565b6000610ee58383610eca565b60208301905092915050565b6000602082019050919050565b6000610f0982610e9e565b610f138185610ea9565b9350610f1e83610eba565b8060005b83811015610f4f578151610f368882610ed9565b9750610f4183610ef1565b925050600181019050610f22565b5085935050505092915050565b600081519050919050565b600082825260208201905092915050565b6000819050602082019050919050565b600082825260208201905092915050565b6000610fa482610be4565b610fae8185610f88565b9350610fbe818560208601610c00565b610fc781610c33565b840191505092915050565b6000610fde8383610f99565b905092915050565b6000602082019050919050565b6000610ffe82610f5c565b6110088185610f67565b93508360208202850161101a85610f78565b8060005b8581101561105657848403895281516110378582610fd2565b945061104283610fe6565b925060208a0199505060018101905061101e565b50829750879550505050505092915050565b600073ffffffffffffffffffffffffffffffffffffffff82169050919050565b600061109382611068565b9050919050565b6110a381611088565b82525050565b600060808201905081810360008301526110c38187610efe565b905081810360208301526110d78186610ff3565b905081810360408301526110eb8185610ff3565b90506110fa606083018461109a565b95945050505050565b6000606082019050818103600083015261111d8186610c44565b905081810360208301526111318185610c44565b9050611140604083018461109a565b949350505050565b7f4e487b7100000000000000000000000000000000000000000000000000000000600052602260045260246000fd5b6000600282049050600182168061118f57607f821691505b602082108114156111a3576111a2611148565b5b50919050565b7f43616e6e6f74207361766520656d70747920616e737765720000000000000000600082015250565b60006111df601883610bef565b91506111ea826111a9565b602082019050919050565b6000602082019050818103600083015261120e816111d2565b9050919050565b7f4e487b7100000000000000000000000000000000000000000000000000000000600052601160045260246000fd5b600061124f82610b7b565b915061125a83610b7b565b92508263ffffffff0382111561127357611272611215565b5b828201905092915050565b7f4e487b7100000000000000000000000000000000000000000000000000000000600052603260045260246000fd5b60006112b882610b7b565b915063ffffffff8214156112cf576112ce611215565b5b60018201905091905056fea264697066735822122063b35cf59f480366551d72574bddfe038e33e6bc21fee815627017b2a6cb97c764736f6c634300080b0033",
  "immutableReferences": {},
  "source": "//SPDX-License-Identifier: MIT\r\n\r\npragma solidity >=0.8.0 <0.9.0;\r\n\r\ncontract Abc {\r\n    struct Student {\r\n        string name;\r\n        string answers;\r\n    }\r\n\r\n    mapping(uint32 => Student) public students;\r\n    mapping(uint32 => uint32) public mappingIdToStudentId;\r\n    uint32 public numberOfStudents;\r\n\r\n    function getStudentMarks(uint32 _id)\r\n        public\r\n        view\r\n        returns (\r\n            string memory Name,\r\n            string memory Answers,\r\n            address sender\r\n        )\r\n    {\r\n        return (students[_id].name, students[_id].answers, msg.sender);\r\n    }\r\n\r\n    function getAllStudentsMarks()\r\n        public\r\n        view\r\n        returns (\r\n            uint32[] memory ids,\r\n            string[] memory names,\r\n            string[] memory answers,\r\n            address _sender\r\n        )\r\n    {\r\n        uint32[] memory id = new uint32[](numberOfStudents);\r\n        string[] memory name = new string[](numberOfStudents);\r\n        string[] memory answer = new string[](numberOfStudents);\r\n        for (uint32 i; i < numberOfStudents; i++) {\r\n            id[i] = mappingIdToStudentId[i];\r\n            name[i] = students[mappingIdToStudentId[i]].name;\r\n            answer[i] = students[mappingIdToStudentId[i]].answers;\r\n        }\r\n\r\n        return (id, name, answer, msg.sender);\r\n    }\r\n\r\n    function addMarks(\r\n        uint32 _id,\r\n        string memory _name,\r\n        string memory _ans\r\n    ) public {\r\n        require(bytes(_ans).length > 0, \"Cannot save empty answer\");\r\n\r\n        Student memory student = students[_id];\r\n        if (bytes(student.answers).length == 0) {\r\n            mappingIdToStudentId[numberOfStudents] = _id;\r\n            numberOfStudents = numberOfStudents + 1;\r\n        }\r\n        student.name = _name;\r\n        student.answers = _ans;\r\n        students[_id] = student;\r\n    }\r\n}\r\n",
  "sourcePath": "D:\\MyProjects\\Git-Smart-Contracts\\Examination-smart-contract\\contract\\contracts\\IeltsContract.sol",
  "compiler": {
    "name": "solc",
    "version": "0.8.11+commit.d7f03943.Emscripten.clang"
  },
  "schemaVersion": "3.4.4",
  "updatedAt": "2022-04-20T04:33:10.971Z",
  "devdoc": {
    "kind": "dev",
    "methods": {},
    "version": 1
  },
  "userdoc": {
    "kind": "user",
    "methods": {},
    "version": 1
  }
}