{
  "contractName": "IeltsContract",
  "abi": [
    {
      "inputs": [
        {
          "internalType": "string",
          "name": "",
          "type": "string"
        }
      ],
      "name": "students",
      "outputs": [
        {
          "internalType": "string",
          "name": "Id",
          "type": "string"
        },
        {
          "internalType": "string",
          "name": "Answers",
          "type": "string"
        }
      ],
      "stateMutability": "view",
      "type": "function",
      "constant": true
    },
    {
      "inputs": [
        {
          "internalType": "string",
          "name": "_id",
          "type": "string"
        }
      ],
      "name": "getStudentMarks",
      "outputs": [
        {
          "internalType": "string",
          "name": "Id",
          "type": "string"
        },
        {
          "internalType": "string",
          "name": "Answers",
          "type": "string"
        },
        {
          "internalType": "address",
          "name": "sender",
          "type": "address"
        }
      ],
      "stateMutability": "view",
      "type": "function",
      "constant": true
    },
    {
      "inputs": [
        {
          "internalType": "string",
          "name": "Id",
          "type": "string"
        },
        {
          "internalType": "string",
          "name": "Ans",
          "type": "string"
        }
      ],
      "name": "addMarks",
      "outputs": [],
      "stateMutability": "nonpayable",
      "type": "function"
    },
    {
      "inputs": [],
      "name": "getArray",
      "outputs": [
        {
          "internalType": "string[]",
          "name": "",
          "type": "string[]"
        }
      ],
      "stateMutability": "view",
      "type": "function",
      "constant": true
    },
    {
      "inputs": [
        {
          "internalType": "string",
          "name": "ans",
          "type": "string"
        }
      ],
      "name": "push_array",
      "outputs": [],
      "stateMutability": "nonpayable",
      "type": "function"
    }
  ],
  "bytecode": "0x608060405234801561001057600080fd5b50610b57806100206000396000f3fe608060405234801561001057600080fd5b50600436106100575760003560e01c806347e1229e1461005c578063ab65918514610078578063c7ef6bfb146100aa578063d504ea1d146100db578063fdbab681146100f9575b600080fd5b61007660048036038101906100719190610739565b610115565b005b610092600480360381019061008d9190610739565b610154565b6040516100a19392919061084b565b60405180910390f35b6100c460048036038101906100bf9190610739565b6102c2565b6040516100d2929190610890565b60405180910390f35b6100e361040c565b6040516100f091906109d3565b60405180910390f35b610113600480360381019061010e91906109f5565b6104e5565b005b60038190806001815401808255809150506001900390600052602060002001600090919091909150908051906020019061015092919061053c565b5050565b60608060008060028560405161016a9190610aa9565b908152602001604051809103902060405180604001604052908160008201805461019390610aef565b80601f01602080910402602001604051908101604052809291908181526020018280546101bf90610aef565b801561020c5780601f106101e15761010080835404028352916020019161020c565b820191906000526020600020905b8154815290600101906020018083116101ef57829003601f168201915b5050505050815260200160018201805461022590610aef565b80601f016020809104026020016040519081016040528092919081815260200182805461025190610aef565b801561029e5780601f106102735761010080835404028352916020019161029e565b820191906000526020600020905b81548152906001019060200180831161028157829003601f168201915b50505050508152505090508060000151816020015133935093509350509193909250565b6002818051602081018201805184825260208301602085012081835280955050505050506000915090508060000180546102fb90610aef565b80601f016020809104026020016040519081016040528092919081815260200182805461032790610aef565b80156103745780601f1061034957610100808354040283529160200191610374565b820191906000526020600020905b81548152906001019060200180831161035757829003601f168201915b50505050509080600101805461038990610aef565b80601f01602080910402602001604051908101604052809291908181526020018280546103b590610aef565b80156104025780601f106103d757610100808354040283529160200191610402565b820191906000526020600020905b8154815290600101906020018083116103e557829003601f168201915b5050505050905082565b60606003805480602002602001604051908101604052809291908181526020016000905b828210156104dc57838290600052602060002001805461044f90610aef565b80601f016020809104026020016040519081016040528092919081815260200182805461047b90610aef565b80156104c85780601f1061049d576101008083540402835291602001916104c8565b820191906000526020600020905b8154815290600101906020018083116104ab57829003601f168201915b505050505081526020019060010190610430565b50505050905090565b60405180604001604052808381526020018281525060008082015181600001908051906020019061051792919061053c565b50602082015181600101908051906020019061053492919061053c565b509050505050565b82805461054890610aef565b90600052602060002090601f01602090048101928261056a57600085556105b1565b82601f1061058357805160ff19168380011785556105b1565b828001600101855582156105b1579182015b828111156105b0578251825591602001919060010190610595565b5b5090506105be91906105c2565b5090565b5b808211156105db5760008160009055506001016105c3565b5090565b6000604051905090565b600080fd5b600080fd5b600080fd5b600080fd5b6000601f19601f8301169050919050565b7f4e487b7100000000000000000000000000000000000000000000000000000000600052604160045260246000fd5b610646826105fd565b810181811067ffffffffffffffff821117156106655761066461060e565b5b80604052505050565b60006106786105df565b9050610684828261063d565b919050565b600067ffffffffffffffff8211156106a4576106a361060e565b5b6106ad826105fd565b9050602081019050919050565b82818337600083830152505050565b60006106dc6106d784610689565b61066e565b9050828152602081018484840111156106f8576106f76105f8565b5b6107038482856106ba565b509392505050565b600082601f8301126107205761071f6105f3565b5b81356107308482602086016106c9565b91505092915050565b60006020828403121561074f5761074e6105e9565b5b600082013567ffffffffffffffff81111561076d5761076c6105ee565b5b6107798482850161070b565b91505092915050565b600081519050919050565b600082825260208201905092915050565b60005b838110156107bc5780820151818401526020810190506107a1565b838111156107cb576000848401525b50505050565b60006107dc82610782565b6107e6818561078d565b93506107f681856020860161079e565b6107ff816105fd565b840191505092915050565b600073ffffffffffffffffffffffffffffffffffffffff82169050919050565b60006108358261080a565b9050919050565b6108458161082a565b82525050565b6000606082019050818103600083015261086581866107d1565b9050818103602083015261087981856107d1565b9050610888604083018461083c565b949350505050565b600060408201905081810360008301526108aa81856107d1565b905081810360208301526108be81846107d1565b90509392505050565b600081519050919050565b600082825260208201905092915050565b6000819050602082019050919050565b600082825260208201905092915050565b600061090f82610782565b61091981856108f3565b935061092981856020860161079e565b610932816105fd565b840191505092915050565b60006109498383610904565b905092915050565b6000602082019050919050565b6000610969826108c7565b61097381856108d2565b935083602082028501610985856108e3565b8060005b858110156109c157848403895281516109a2858261093d565b94506109ad83610951565b925060208a01995050600181019050610989565b50829750879550505050505092915050565b600060208201905081810360008301526109ed818461095e565b905092915050565b60008060408385031215610a0c57610a0b6105e9565b5b600083013567ffffffffffffffff811115610a2a57610a296105ee565b5b610a368582860161070b565b925050602083013567ffffffffffffffff811115610a5757610a566105ee565b5b610a638582860161070b565b9150509250929050565b600081905092915050565b6000610a8382610782565b610a8d8185610a6d565b9350610a9d81856020860161079e565b80840191505092915050565b6000610ab58284610a78565b915081905092915050565b7f4e487b7100000000000000000000000000000000000000000000000000000000600052602260045260246000fd5b60006002820490506001821680610b0757607f821691505b60208210811415610b1b57610b1a610ac0565b5b5091905056fea264697066735822122018b510ac848120c27725c26afe655b2992968905722dacf225336f44421235b164736f6c634300080b0033",
  "immutableReferences": {},
  "source": "//SPDX-License-Identifier: MIT\r\n\r\npragma solidity >=0.8.0 <0.9.0;\r\n\r\ncontract IeltsContract {\r\n    struct Student {\r\n        string Id;\r\n        string Answers;\r\n    }\r\n\r\n    Student student;\r\n\r\n    mapping(string => Student) public students;\r\n\r\n    function getStudentMarks(string memory _id)\r\n        public\r\n        view\r\n        returns (\r\n            string memory Id,\r\n            string memory Answers,\r\n            address sender\r\n        )\r\n    {\r\n        Student memory s = students[_id];\r\n        return (s.Id, s.Answers, msg.sender);\r\n    }\r\n\r\n    function addMarks(string memory Id, string memory Ans) public {\r\n        student = Student(Id, Ans);\r\n        // students[Id] =  student;\r\n    }\r\n\r\n    string[] myString;\r\n\r\n    function getArray() public view returns (string[] memory) {\r\n        return myString;\r\n    }\r\n\r\n    function push_array(string memory ans) public {\r\n        myString.push(ans);\r\n    }\r\n}\r\n",
  "sourcePath": "H:\\My VS Projects\\Git-Smart-Contracts\\Examination-smart-contract\\contract\\contracts\\IeltsContract.sol",
  "compiler": {
    "name": "solc",
    "version": "0.8.11+commit.d7f03943.Emscripten.clang"
  },
  "schemaVersion": "3.4.4",
  "updatedAt": "2022-01-26T05:22:57.023Z",
  "networkType": "ethereum",
  "devdoc": {
    "kind": "dev",
    "methods": {},
    "version": 1
  },
  "userdoc": {
    "kind": "user",
    "methods": {},
    "version": 1
  }
}