{
  "contractName": "IeltsContract",
  "abi": [
    {
      "inputs": [],
      "name": "getArray",
      "outputs": [
        {
          "internalType": "string[]",
          "name": "",
          "type": "string[]"
        }
      ],
      "stateMutability": "view",
      "type": "function",
      "constant": true
    },
    {
      "inputs": [
        {
          "internalType": "string",
          "name": "ans",
          "type": "string"
        }
      ],
      "name": "push_array",
      "outputs": [],
      "stateMutability": "nonpayable",
      "type": "function"
    }
  ],
  "bytecode": "0x608060405234801561001057600080fd5b506105d6806100206000396000f3fe608060405234801561001057600080fd5b50600436106100365760003560e01c806347e1229e1461003b578063d504ea1d14610057575b600080fd5b6100556004803603810190610050919061038a565b610075565b005b61005f6100b4565b60405161006c919061051d565b60405180910390f35b6000819080600181540180825580915050600190039060005260206000200160009091909190915090805190602001906100b092919061018d565b5050565b60606000805480602002602001604051908101604052809291908181526020016000905b828210156101845783829060005260206000200180546100f79061056e565b80601f01602080910402602001604051908101604052809291908181526020018280546101239061056e565b80156101705780601f1061014557610100808354040283529160200191610170565b820191906000526020600020905b81548152906001019060200180831161015357829003601f168201915b5050505050815260200190600101906100d8565b50505050905090565b8280546101999061056e565b90600052602060002090601f0160209004810192826101bb5760008555610202565b82601f106101d457805160ff1916838001178555610202565b82800160010185558215610202579182015b828111156102015782518255916020019190600101906101e6565b5b50905061020f9190610213565b5090565b5b8082111561022c576000816000905550600101610214565b5090565b6000604051905090565b600080fd5b600080fd5b600080fd5b600080fd5b6000601f19601f8301169050919050565b7f4e487b7100000000000000000000000000000000000000000000000000000000600052604160045260246000fd5b6102978261024e565b810181811067ffffffffffffffff821117156102b6576102b561025f565b5b80604052505050565b60006102c9610230565b90506102d5828261028e565b919050565b600067ffffffffffffffff8211156102f5576102f461025f565b5b6102fe8261024e565b9050602081019050919050565b82818337600083830152505050565b600061032d610328846102da565b6102bf565b90508281526020810184848401111561034957610348610249565b5b61035484828561030b565b509392505050565b600082601f83011261037157610370610244565b5b813561038184826020860161031a565b91505092915050565b6000602082840312156103a05761039f61023a565b5b600082013567ffffffffffffffff8111156103be576103bd61023f565b5b6103ca8482850161035c565b91505092915050565b600081519050919050565b600082825260208201905092915050565b6000819050602082019050919050565b600081519050919050565b600082825260208201905092915050565b60005b8381101561043957808201518184015260208101905061041e565b83811115610448576000848401525b50505050565b6000610459826103ff565b610463818561040a565b935061047381856020860161041b565b61047c8161024e565b840191505092915050565b6000610493838361044e565b905092915050565b6000602082019050919050565b60006104b3826103d3565b6104bd81856103de565b9350836020820285016104cf856103ef565b8060005b8581101561050b57848403895281516104ec8582610487565b94506104f78361049b565b925060208a019950506001810190506104d3565b50829750879550505050505092915050565b6000602082019050818103600083015261053781846104a8565b905092915050565b7f4e487b7100000000000000000000000000000000000000000000000000000000600052602260045260246000fd5b6000600282049050600182168061058657607f821691505b6020821081141561059a5761059961053f565b5b5091905056fea26469706673582212204922efc72bb9cc7758ec8b807423d7c91825dc225cb44a16b86a88ebc530bbd464736f6c634300080b0033",
  "immutableReferences": {},
  "source": "//SPDX-License-Identifier: MIT\r\n\r\npragma solidity >=0.8.0 < 0.9.0;\r\n\r\ncontract IeltsContract {\r\n\r\n   string[]  myString;\r\n\r\n    function getArray() public view returns (\r\n        string[] memory) {         \r\n            return myString;\r\n        }  \r\n\r\n    function push_array(string memory ans) public {      \r\n        myString.push(ans);            \r\n    }\r\n\r\n}",
  "sourcePath": "H:\\My VS Projects\\Git-Smart-Contracts\\Examination-smart-contract\\contract\\contracts\\IeltsContract.sol",
  "compiler": {
    "name": "solc",
    "version": "0.8.11+commit.d7f03943.Emscripten.clang"
  },
  "schemaVersion": "3.4.4",
  "updatedAt": "2022-01-25T04:09:47.170Z",
  "networkType": "ethereum",
  "devdoc": {
    "kind": "dev",
    "methods": {},
    "version": 1
  },
  "userdoc": {
    "kind": "user",
    "methods": {},
    "version": 1
  }
}