{
  "contractName": "IeltsContract",
  "abi": [
    {
      "inputs": [],
      "stateMutability": "nonpayable",
      "type": "constructor"
    },
    {
      "anonymous": false,
      "inputs": [
        {
          "indexed": false,
          "internalType": "uint256",
          "name": "id",
          "type": "uint256"
        },
        {
          "indexed": false,
          "internalType": "string",
          "name": "name",
          "type": "string"
        },
        {
          "indexed": false,
          "internalType": "string",
          "name": "phone",
          "type": "string"
        }
      ],
      "name": "ContactCreated",
      "type": "event"
    },
    {
      "inputs": [
        {
          "internalType": "uint256",
          "name": "",
          "type": "uint256"
        }
      ],
      "name": "contacts",
      "outputs": [
        {
          "internalType": "uint256",
          "name": "id",
          "type": "uint256"
        },
        {
          "internalType": "string",
          "name": "name",
          "type": "string"
        },
        {
          "internalType": "string",
          "name": "phone",
          "type": "string"
        }
      ],
      "stateMutability": "view",
      "type": "function",
      "constant": true
    },
    {
      "inputs": [],
      "name": "count",
      "outputs": [
        {
          "internalType": "uint256",
          "name": "",
          "type": "uint256"
        }
      ],
      "stateMutability": "view",
      "type": "function",
      "constant": true
    },
    {
      "inputs": [
        {
          "internalType": "string",
          "name": "_name",
          "type": "string"
        },
        {
          "internalType": "string",
          "name": "_phone",
          "type": "string"
        }
      ],
      "name": "createContact",
      "outputs": [],
      "stateMutability": "nonpayable",
      "type": "function"
    }
  ],
  "bytecode": "0x6080604052600080553480156200001557600080fd5b50620000926040518060400160405280600e81526020017f4d616e70726565742053696e67680000000000000000000000000000000000008152506040518060400160405280600581526020017f70686f6e650000000000000000000000000000000000000000000000000000008152506200009860201b60201c565b6200040c565b600080815480929190620000ac9062000259565b9190505550604051806060016040528060005481526020018381526020018281525060016000805481526020019081526020016000206000820151816000015560208201518160010190805190602001906200010a92919062000170565b5060408201518160020190805190602001906200012992919062000170565b509050507f5b238c329575695a37a8c7bec1baf72c825bb21c77c5fe0e5ff503d4850a4fdb600054838360405162000164939291906200035c565b60405180910390a15050565b8280546200017e90620003d6565b90600052602060002090601f016020900481019282620001a25760008555620001ee565b82601f10620001bd57805160ff1916838001178555620001ee565b82800160010185558215620001ee579182015b82811115620001ed578251825591602001919060010190620001d0565b5b509050620001fd919062000201565b5090565b5b808211156200021c57600081600090555060010162000202565b5090565b7f4e487b7100000000000000000000000000000000000000000000000000000000600052601160045260246000fd5b6000819050919050565b600062000266826200024f565b91507fffffffffffffffffffffffffffffffffffffffffffffffffffffffffffffffff8214156200029c576200029b62000220565b5b600182019050919050565b620002b2816200024f565b82525050565b600081519050919050565b600082825260208201905092915050565b60005b83811015620002f4578082015181840152602081019050620002d7565b8381111562000304576000848401525b50505050565b6000601f19601f8301169050919050565b60006200032882620002b8565b620003348185620002c3565b935062000346818560208601620002d4565b62000351816200030a565b840191505092915050565b6000606082019050620003736000830186620002a7565b81810360208301526200038781856200031b565b905081810360408301526200039d81846200031b565b9050949350505050565b7f4e487b7100000000000000000000000000000000000000000000000000000000600052602260045260246000fd5b60006002820490506001821680620003ef57607f821691505b60208210811415620004065762000405620003a7565b5b50919050565b6107a0806200041c6000396000f3fe608060405234801561001057600080fd5b50600436106100415760003560e01c806306661abd146100465780633dce492014610064578063e0f478cb14610080575b600080fd5b61004e6100b2565b60405161005b919061037e565b60405180910390f35b61007e600480360381019061007991906104f3565b6100b8565b005b61009a60048036038101906100959190610597565b610188565b6040516100a99392919061064c565b60405180910390f35b60005481565b6000808154809291906100ca906106c0565b9190505550604051806060016040528060005481526020018381526020018281525060016000805481526020019081526020016000206000820151816000015560208201518160010190805190602001906101269291906102c2565b5060408201518160020190805190602001906101439291906102c2565b509050507f5b238c329575695a37a8c7bec1baf72c825bb21c77c5fe0e5ff503d4850a4fdb600054838360405161017c9392919061064c565b60405180910390a15050565b60016020528060005260406000206000915090508060000154908060010180546101b190610738565b80601f01602080910402602001604051908101604052809291908181526020018280546101dd90610738565b801561022a5780601f106101ff5761010080835404028352916020019161022a565b820191906000526020600020905b81548152906001019060200180831161020d57829003601f168201915b50505050509080600201805461023f90610738565b80601f016020809104026020016040519081016040528092919081815260200182805461026b90610738565b80156102b85780601f1061028d576101008083540402835291602001916102b8565b820191906000526020600020905b81548152906001019060200180831161029b57829003601f168201915b5050505050905083565b8280546102ce90610738565b90600052602060002090601f0160209004810192826102f05760008555610337565b82601f1061030957805160ff1916838001178555610337565b82800160010185558215610337579182015b8281111561033657825182559160200191906001019061031b565b5b5090506103449190610348565b5090565b5b80821115610361576000816000905550600101610349565b5090565b6000819050919050565b61037881610365565b82525050565b6000602082019050610393600083018461036f565b92915050565b6000604051905090565b600080fd5b600080fd5b600080fd5b600080fd5b6000601f19601f8301169050919050565b7f4e487b7100000000000000000000000000000000000000000000000000000000600052604160045260246000fd5b610400826103b7565b810181811067ffffffffffffffff8211171561041f5761041e6103c8565b5b80604052505050565b6000610432610399565b905061043e82826103f7565b919050565b600067ffffffffffffffff82111561045e5761045d6103c8565b5b610467826103b7565b9050602081019050919050565b82818337600083830152505050565b600061049661049184610443565b610428565b9050828152602081018484840111156104b2576104b16103b2565b5b6104bd848285610474565b509392505050565b600082601f8301126104da576104d96103ad565b5b81356104ea848260208601610483565b91505092915050565b6000806040838503121561050a576105096103a3565b5b600083013567ffffffffffffffff811115610528576105276103a8565b5b610534858286016104c5565b925050602083013567ffffffffffffffff811115610555576105546103a8565b5b610561858286016104c5565b9150509250929050565b61057481610365565b811461057f57600080fd5b50565b6000813590506105918161056b565b92915050565b6000602082840312156105ad576105ac6103a3565b5b60006105bb84828501610582565b91505092915050565b600081519050919050565b600082825260208201905092915050565b60005b838110156105fe5780820151818401526020810190506105e3565b8381111561060d576000848401525b50505050565b600061061e826105c4565b61062881856105cf565b93506106388185602086016105e0565b610641816103b7565b840191505092915050565b6000606082019050610661600083018661036f565b81810360208301526106738185610613565b905081810360408301526106878184610613565b9050949350505050565b7f4e487b7100000000000000000000000000000000000000000000000000000000600052601160045260246000fd5b60006106cb82610365565b91507fffffffffffffffffffffffffffffffffffffffffffffffffffffffffffffffff8214156106fe576106fd610691565b5b600182019050919050565b7f4e487b7100000000000000000000000000000000000000000000000000000000600052602260045260246000fd5b6000600282049050600182168061075057607f821691505b6020821081141561076457610763610709565b5b5091905056fea2646970667358221220a9cd7e81cf73a587e6a4d79b07850f4fdd57c16563596330b18ff8e4032890f864736f6c634300080b0033",
  "immutableReferences": {},
  "source": "//SPDX-License-Identifier: MIT\r\n\r\npragma solidity >=0.8.0 < 0.9.0;\r\n\r\ncontract IeltsContract {\r\n\r\n   uint public count = 0;\r\n\r\n    struct Contact {\r\n        uint id;\r\n        string name;\r\n        string phone;\r\n    }\r\n\r\n    constructor() {\r\n        createContact(\"Manpreet Singh\", \"phone\");\r\n    }\r\n\r\n    mapping(uint256 => Contact) public contacts;\r\n\r\n    event ContactCreated(uint id, string name, string phone);\r\n\r\n    function createContact(string memory _name, string memory _phone) public {\r\n        count ++;\r\n        contacts[count] = Contact(count, _name, _phone);\r\n        emit ContactCreated(count, _name, _phone);\r\n    }\r\n\r\n}",
  "sourcePath": "H:\\My VS Projects\\Git-Smart-Contracts\\Examination-smart-contract\\contract\\contracts\\IeltsContract.sol",
  "compiler": {
    "name": "solc",
    "version": "0.8.11+commit.d7f03943.Emscripten.clang"
  },
  "schemaVersion": "3.4.4",
  "updatedAt": "2022-01-23T10:53:23.948Z",
  "networkType": "ethereum",
  "devdoc": {
    "kind": "dev",
    "methods": {},
    "version": 1
  },
  "userdoc": {
    "kind": "user",
    "methods": {},
    "version": 1
  }
}