{
  "contractName": "IeltsContract",
  "abi": [
    {
      "inputs": [],
      "name": "getArray",
      "outputs": [
        {
          "internalType": "string[]",
          "name": "",
          "type": "string[]"
        }
      ],
      "stateMutability": "nonpayable",
      "type": "function"
    },
    {
      "inputs": [
        {
          "internalType": "string",
          "name": "ques",
          "type": "string"
        },
        {
          "internalType": "string",
          "name": "opt",
          "type": "string"
        }
      ],
      "name": "push_array",
      "outputs": [],
      "stateMutability": "nonpayable",
      "type": "function"
    }
  ],
  "bytecode": "0x608060405234801561001057600080fd5b5061075b806100206000396000f3fe608060405234801561001057600080fd5b50600436106100365760003560e01c8063377da1401461003b578063d504ea1d14610057575b600080fd5b610055600480360381019061005091906104e0565b610075565b005b61005f6100f1565b60405161006c91906106a2565b60405180910390f35b6000829080600181540180825580915050600190039060005260206000200160009091909190915090805190602001906100b092919061021f565b506000819080600181540180825580915050600190039060005260206000200160009091909190915090805190602001906100ec92919061021f565b505050565b606060405180602001604052806040518060400160405280600481526020017f6d616e750000000000000000000000000000000000000000000000000000000081525081525060009060016101479291906102a5565b506000805480602002602001604051908101604052809291908181526020016000905b82821015610216578382906000526020600020018054610189906106f3565b80601f01602080910402602001604051908101604052809291908181526020018280546101b5906106f3565b80156102025780601f106101d757610100808354040283529160200191610202565b820191906000526020600020905b8154815290600101906020018083116101e557829003601f168201915b50505050508152602001906001019061016a565b50505050905090565b82805461022b906106f3565b90600052602060002090601f01602090048101928261024d5760008555610294565b82601f1061026657805160ff1916838001178555610294565b82800160010185558215610294579182015b82811115610293578251825591602001919060010190610278565b5b5090506102a19190610305565b5090565b8280548282559060005260206000209081019282156102f4579160200282015b828111156102f35782518290805190602001906102e392919061021f565b50916020019190600101906102c5565b5b5090506103019190610322565b5090565b5b8082111561031e576000816000905550600101610306565b5090565b5b8082111561034257600081816103399190610346565b50600101610323565b5090565b508054610352906106f3565b6000825580601f106103645750610383565b601f0160209004906000526020600020908101906103829190610305565b5b50565b6000604051905090565b600080fd5b600080fd5b600080fd5b600080fd5b6000601f19601f8301169050919050565b7f4e487b7100000000000000000000000000000000000000000000000000000000600052604160045260246000fd5b6103ed826103a4565b810181811067ffffffffffffffff8211171561040c5761040b6103b5565b5b80604052505050565b600061041f610386565b905061042b82826103e4565b919050565b600067ffffffffffffffff82111561044b5761044a6103b5565b5b610454826103a4565b9050602081019050919050565b82818337600083830152505050565b600061048361047e84610430565b610415565b90508281526020810184848401111561049f5761049e61039f565b5b6104aa848285610461565b509392505050565b600082601f8301126104c7576104c661039a565b5b81356104d7848260208601610470565b91505092915050565b600080604083850312156104f7576104f6610390565b5b600083013567ffffffffffffffff81111561051557610514610395565b5b610521858286016104b2565b925050602083013567ffffffffffffffff81111561054257610541610395565b5b61054e858286016104b2565b9150509250929050565b600081519050919050565b600082825260208201905092915050565b6000819050602082019050919050565b600081519050919050565b600082825260208201905092915050565b60005b838110156105be5780820151818401526020810190506105a3565b838111156105cd576000848401525b50505050565b60006105de82610584565b6105e8818561058f565b93506105f88185602086016105a0565b610601816103a4565b840191505092915050565b600061061883836105d3565b905092915050565b6000602082019050919050565b600061063882610558565b6106428185610563565b93508360208202850161065485610574565b8060005b858110156106905784840389528151610671858261060c565b945061067c83610620565b925060208a01995050600181019050610658565b50829750879550505050505092915050565b600060208201905081810360008301526106bc818461062d565b905092915050565b7f4e487b7100000000000000000000000000000000000000000000000000000000600052602260045260246000fd5b6000600282049050600182168061070b57607f821691505b6020821081141561071f5761071e6106c4565b5b5091905056fea264697066735822122013ff1063c8849f80c569b2670e12e34842d60c808776b6e4d5ced6d1955a607d64736f6c634300080b0033",
  "immutableReferences": {},
  "source": "//SPDX-License-Identifier: MIT\r\n\r\npragma solidity >=0.8.0 < 0.9.0;\r\n\r\ncontract IeltsContract {\r\n\r\n   string[]  myString;\r\n\r\n    function getArray() public returns (\r\n        string[] memory) {   \r\n            myString = [\"manu\"];        \r\n            return myString;\r\n        }  \r\n\r\n    function push_array(string memory ques, string memory opt) public {      \r\n        myString.push(ques);\r\n        myString.push(opt);     \r\n       \r\n    }\r\n\r\n}",
  "sourcePath": "H:\\My VS Projects\\Git-Smart-Contracts\\Examination-smart-contract\\contract\\contracts\\IeltsContract.sol",
  "compiler": {
    "name": "solc",
    "version": "0.8.11+commit.d7f03943.Emscripten.clang"
  },
  "schemaVersion": "3.4.4",
  "updatedAt": "2022-01-23T16:58:12.828Z",
  "networkType": "ethereum",
  "devdoc": {
    "kind": "dev",
    "methods": {},
    "version": 1
  },
  "userdoc": {
    "kind": "user",
    "methods": {},
    "version": 1
  }
}