{
  "contractName": "IeltsContract",
  "abi": [
    {
      "inputs": [
        {
          "internalType": "uint256",
          "name": "",
          "type": "uint256"
        }
      ],
      "name": "mappingIdToStudentId",
      "outputs": [
        {
          "internalType": "uint256",
          "name": "",
          "type": "uint256"
        }
      ],
      "stateMutability": "view",
      "type": "function",
      "constant": true
    },
    {
      "inputs": [],
      "name": "numberOfStudents",
      "outputs": [
        {
          "internalType": "uint256",
          "name": "",
          "type": "uint256"
        }
      ],
      "stateMutability": "view",
      "type": "function",
      "constant": true
    },
    {
      "inputs": [
        {
          "internalType": "uint256",
          "name": "",
          "type": "uint256"
        }
      ],
      "name": "students",
      "outputs": [
        {
          "internalType": "string",
          "name": "name",
          "type": "string"
        },
        {
          "internalType": "string",
          "name": "answers",
          "type": "string"
        }
      ],
      "stateMutability": "view",
      "type": "function",
      "constant": true
    },
    {
      "inputs": [
        {
          "internalType": "uint256",
          "name": "_id",
          "type": "uint256"
        }
      ],
      "name": "getStudentMarks",
      "outputs": [
        {
          "internalType": "string",
          "name": "Name",
          "type": "string"
        },
        {
          "internalType": "string",
          "name": "Answers",
          "type": "string"
        },
        {
          "internalType": "address",
          "name": "sender",
          "type": "address"
        }
      ],
      "stateMutability": "view",
      "type": "function",
      "constant": true
    },
    {
      "inputs": [],
      "name": "getAllStudentsMarks",
      "outputs": [
        {
          "internalType": "uint256[]",
          "name": "ids",
          "type": "uint256[]"
        },
        {
          "internalType": "string[]",
          "name": "names",
          "type": "string[]"
        },
        {
          "internalType": "string[]",
          "name": "answers",
          "type": "string[]"
        },
        {
          "internalType": "address",
          "name": "_sender",
          "type": "address"
        }
      ],
      "stateMutability": "view",
      "type": "function",
      "constant": true
    },
    {
      "inputs": [
        {
          "internalType": "uint256",
          "name": "_id",
          "type": "uint256"
        },
        {
          "internalType": "string",
          "name": "_name",
          "type": "string"
        },
        {
          "internalType": "string",
          "name": "_ans",
          "type": "string"
        }
      ],
      "name": "addMarks",
      "outputs": [],
      "stateMutability": "nonpayable",
      "type": "function"
    }
  ],
  "bytecode": "0x608060405234801561001057600080fd5b506111ad806100206000396000f3fe608060405234801561001057600080fd5b50600436106100625760003560e01c806306ead22e146100675780636043e8b3146100985780637a32d6f7146100ca57806383c3c792146100fa57806393199b0914610116578063f2e946e214610134575b600080fd5b610081600480360381019061007c9190610a1c565b610155565b60405161008f929190610ae2565b60405180910390f35b6100b260048036038101906100ad9190610a1c565b610289565b6040516100c193929190610b5a565b60405180910390f35b6100e460048036038101906100df9190610a1c565b6103de565b6040516100f19190610bae565b60405180910390f35b610114600480360381019061010f9190610cfe565b6103f6565b005b61011e610625565b60405161012b9190610bae565b60405180910390f35b61013c61062b565b60405161014c9493929190610f53565b60405180910390f35b600060205280600052604060002060009150905080600001805461017890610fdc565b80601f01602080910402602001604051908101604052809291908181526020018280546101a490610fdc565b80156101f15780601f106101c6576101008083540402835291602001916101f1565b820191906000526020600020905b8154815290600101906020018083116101d457829003601f168201915b50505050509080600101805461020690610fdc565b80601f016020809104026020016040519081016040528092919081815260200182805461023290610fdc565b801561027f5780601f106102545761010080835404028352916020019161027f565b820191906000526020600020905b81548152906001019060200180831161026257829003601f168201915b5050505050905082565b6060806000806000858152602001908152602001600020600001600080868152602001908152602001600020600101338280546102c590610fdc565b80601f01602080910402602001604051908101604052809291908181526020018280546102f190610fdc565b801561033e5780601f106103135761010080835404028352916020019161033e565b820191906000526020600020905b81548152906001019060200180831161032157829003601f168201915b5050505050925081805461035190610fdc565b80601f016020809104026020016040519081016040528092919081815260200182805461037d90610fdc565b80156103ca5780601f1061039f576101008083540402835291602001916103ca565b820191906000526020600020905b8154815290600101906020018083116103ad57829003601f168201915b505050505091509250925092509193909250565b60016020528060005260406000206000915090505481565b600081511161043a576040517f08c379a00000000000000000000000000000000000000000000000000000000081526004016104319061105a565b60405180910390fd5b600080600085815260200190815260200160002060405180604001604052908160008201805461046990610fdc565b80601f016020809104026020016040519081016040528092919081815260200182805461049590610fdc565b80156104e25780601f106104b7576101008083540402835291602001916104e2565b820191906000526020600020905b8154815290600101906020018083116104c557829003601f168201915b505050505081526020016001820180546104fb90610fdc565b80601f016020809104026020016040519081016040528092919081815260200182805461052790610fdc565b80156105745780601f1061054957610100808354040283529160200191610574565b820191906000526020600020905b81548152906001019060200180831161055757829003601f168201915b5050505050815250509050600081602001515114156105bd57836001600060025481526020019081526020016000208190555060016002546105b691906110a9565b6002819055505b8281600001819052508181602001819052508060008086815260200190815260200160002060008201518160000190805190602001906105fe92919061092f565b50602082015181600101908051906020019061061b92919061092f565b5090505050505050565b60025481565b606080606060008060025467ffffffffffffffff81111561064f5761064e610bd3565b5b60405190808252806020026020018201604052801561067d5781602001602082028036833780820191505090505b509050600060025467ffffffffffffffff81111561069e5761069d610bd3565b5b6040519080825280602002602001820160405280156106d157816020015b60608152602001906001900390816106bc5790505b509050600060025467ffffffffffffffff8111156106f2576106f1610bd3565b5b60405190808252806020026020018201604052801561072557816020015b60608152602001906001900390816107105790505b50905060005b60025481101561091957600160008281526020019081526020016000205484828151811061075c5761075b6110ff565b5b60200260200101818152505060008060016000848152602001908152602001600020548152602001908152602001600020600001805461079b90610fdc565b80601f01602080910402602001604051908101604052809291908181526020018280546107c790610fdc565b80156108145780601f106107e957610100808354040283529160200191610814565b820191906000526020600020905b8154815290600101906020018083116107f757829003601f168201915b505050505083828151811061082c5761082b6110ff565b5b602002602001018190525060008060016000848152602001908152602001600020548152602001908152602001600020600101805461086a90610fdc565b80601f016020809104026020016040519081016040528092919081815260200182805461089690610fdc565b80156108e35780601f106108b8576101008083540402835291602001916108e3565b820191906000526020600020905b8154815290600101906020018083116108c657829003601f168201915b50505050508282815181106108fb576108fa6110ff565b5b602002602001018190525080806109119061112e565b91505061072b565b5082828233965096509650965050505090919293565b82805461093b90610fdc565b90600052602060002090601f01602090048101928261095d57600085556109a4565b82601f1061097657805160ff19168380011785556109a4565b828001600101855582156109a4579182015b828111156109a3578251825591602001919060010190610988565b5b5090506109b191906109b5565b5090565b5b808211156109ce5760008160009055506001016109b6565b5090565b6000604051905090565b600080fd5b600080fd5b6000819050919050565b6109f9816109e6565b8114610a0457600080fd5b50565b600081359050610a16816109f0565b92915050565b600060208284031215610a3257610a316109dc565b5b6000610a4084828501610a07565b91505092915050565b600081519050919050565b600082825260208201905092915050565b60005b83811015610a83578082015181840152602081019050610a68565b83811115610a92576000848401525b50505050565b6000601f19601f8301169050919050565b6000610ab482610a49565b610abe8185610a54565b9350610ace818560208601610a65565b610ad781610a98565b840191505092915050565b60006040820190508181036000830152610afc8185610aa9565b90508181036020830152610b108184610aa9565b90509392505050565b600073ffffffffffffffffffffffffffffffffffffffff82169050919050565b6000610b4482610b19565b9050919050565b610b5481610b39565b82525050565b60006060820190508181036000830152610b748186610aa9565b90508181036020830152610b888185610aa9565b9050610b976040830184610b4b565b949350505050565b610ba8816109e6565b82525050565b6000602082019050610bc36000830184610b9f565b92915050565b600080fd5b600080fd5b7f4e487b7100000000000000000000000000000000000000000000000000000000600052604160045260246000fd5b610c0b82610a98565b810181811067ffffffffffffffff82111715610c2a57610c29610bd3565b5b80604052505050565b6000610c3d6109d2565b9050610c498282610c02565b919050565b600067ffffffffffffffff821115610c6957610c68610bd3565b5b610c7282610a98565b9050602081019050919050565b82818337600083830152505050565b6000610ca1610c9c84610c4e565b610c33565b905082815260208101848484011115610cbd57610cbc610bce565b5b610cc8848285610c7f565b509392505050565b600082601f830112610ce557610ce4610bc9565b5b8135610cf5848260208601610c8e565b91505092915050565b600080600060608486031215610d1757610d166109dc565b5b6000610d2586828701610a07565b935050602084013567ffffffffffffffff811115610d4657610d456109e1565b5b610d5286828701610cd0565b925050604084013567ffffffffffffffff811115610d7357610d726109e1565b5b610d7f86828701610cd0565b9150509250925092565b600081519050919050565b600082825260208201905092915050565b6000819050602082019050919050565b610dbe816109e6565b82525050565b6000610dd08383610db5565b60208301905092915050565b6000602082019050919050565b6000610df482610d89565b610dfe8185610d94565b9350610e0983610da5565b8060005b83811015610e3a578151610e218882610dc4565b9750610e2c83610ddc565b925050600181019050610e0d565b5085935050505092915050565b600081519050919050565b600082825260208201905092915050565b6000819050602082019050919050565b600082825260208201905092915050565b6000610e8f82610a49565b610e998185610e73565b9350610ea9818560208601610a65565b610eb281610a98565b840191505092915050565b6000610ec98383610e84565b905092915050565b6000602082019050919050565b6000610ee982610e47565b610ef38185610e52565b935083602082028501610f0585610e63565b8060005b85811015610f415784840389528151610f228582610ebd565b9450610f2d83610ed1565b925060208a01995050600181019050610f09565b50829750879550505050505092915050565b60006080820190508181036000830152610f6d8187610de9565b90508181036020830152610f818186610ede565b90508181036040830152610f958185610ede565b9050610fa46060830184610b4b565b95945050505050565b7f4e487b7100000000000000000000000000000000000000000000000000000000600052602260045260246000fd5b60006002820490506001821680610ff457607f821691505b6020821081141561100857611007610fad565b5b50919050565b7f43616e6e6f74207361766520656d70747920616e737765720000000000000000600082015250565b6000611044601883610a54565b915061104f8261100e565b602082019050919050565b6000602082019050818103600083015261107381611037565b9050919050565b7f4e487b7100000000000000000000000000000000000000000000000000000000600052601160045260246000fd5b60006110b4826109e6565b91506110bf836109e6565b9250827fffffffffffffffffffffffffffffffffffffffffffffffffffffffffffffffff038211156110f4576110f361107a565b5b828201905092915050565b7f4e487b7100000000000000000000000000000000000000000000000000000000600052603260045260246000fd5b6000611139826109e6565b91507fffffffffffffffffffffffffffffffffffffffffffffffffffffffffffffffff82141561116c5761116b61107a565b5b60018201905091905056fea26469706673582212201c672a11ea47dc78e044e594fafad5a513bf843c71de64cf7ac351ffbfcc9f8064736f6c634300080b0033",
  "immutableReferences": {},
  "source": "//SPDX-License-Identifier: MIT\r\n\r\npragma solidity >=0.8.0 <0.9.0;\r\n\r\ncontract IeltsContract{\r\n\r\n\r\nstruct Student {\r\n        string name;\r\n        string answers;\r\n    }\r\n\r\n    mapping(uint256 => Student) public students;\r\n    mapping(uint256 => uint256) public mappingIdToStudentId;\r\n    uint256 public numberOfStudents;\r\n\r\n    function getStudentMarks(uint256 _id) public view returns (string memory Name, string memory Answers, \r\n    address sender )\r\n    {\r\n        return (students[_id].name,  students[_id].answers, msg.sender);\r\n    }\r\n\r\n    function getAllStudentsMarks() public view returns (uint256[] memory ids,string[] memory names, string[] memory answers, address _sender) {\r\n        uint256[] memory id = new uint256[](numberOfStudents);\r\n        string[] memory name = new string[](numberOfStudents);\r\n        string[] memory answer = new string[](numberOfStudents);\r\n        for (uint256 i; i < numberOfStudents; i++) {\r\n            id[i] = mappingIdToStudentId[i];\r\n            name[i] = students[mappingIdToStudentId[i]].name;\r\n            answer[i] = students[mappingIdToStudentId[i]].answers;\r\n        }\r\n\r\n        return (id, name, answer, msg.sender);\r\n    }\r\n\r\n    function addMarks(uint256 _id, string memory _name, string memory _ans) public {\r\n        require(bytes(_ans).length > 0, \"Cannot save empty answer\");\r\n\r\n        Student memory student = students[_id]; \r\n        if(bytes(student.answers).length == 0) {\r\n            mappingIdToStudentId[numberOfStudents] = _id;\r\n            numberOfStudents = numberOfStudents + 1;\r\n        } \r\n        student.name = _name;\r\n        student.answers = _ans;\r\n        students[_id] = student;\r\n    }\r\n}",
  "sourcePath": "D:\\My VS Projects\\Git-Smart-Contracts\\Examination-smart-contract\\contract\\contracts\\IeltsContract.sol",
  "compiler": {
    "name": "solc",
    "version": "0.8.11+commit.d7f03943.Emscripten.clang"
  },
  "schemaVersion": "3.4.4",
  "updatedAt": "2022-02-12T15:00:33.646Z",
  "networkType": "ethereum",
  "devdoc": {
    "kind": "dev",
    "methods": {},
    "version": 1
  },
  "userdoc": {
    "kind": "user",
    "methods": {},
    "version": 1
  }
}